:100000000C9434000C943E000C943E000C943E0082
:100010000C943E000C94100A0C943E000C943E008C
:100020000C943E000C943E000C943E000C94BE03D5
:100030000C943E000C943E000C943E000C943E0048
:100040000C943E000C943E000C943E000C943E0038
:100050000C943E000C943E000C943E000C943E0028
:100060000C943E000C943E0011241FBECFEFD8E04C
:10007000DEBFCDBF0E94B7020C94FF3D0C94000080
:1000800000000000000000000000800000000000F0
:1000900000000000800080000000000000008001DF
:1000A00000000000000000007FFF000000000000D2
:1000B00000007FFF400000000000000080032000DF
:1000C0000000000000007FFC4CCCCCCCCCCCCCCDD4
:1000D000800648000000000000007FF923D70A3D99
:1000E00070A3D70A7FF251B71758E219652C7FE544
:1000F0002BCC77118461CEFD7FFF317217F7D1CF02
:1001000079AC800038AA3B295C17F0BC8001135DF4
:100110008DDDAAA8AC177FFE5E5BD8A93728719544
:100120007FFE1A209A84FBCFF7998001549A784B6E
:10013000CD1B8AFE800E33E3B3AD16D2E612800EDD
:10014000B3E3B3AD16D2E61280012DF85458A2BB2A
:100150004A9B8000490FDAA22168C2358001490F0D
:10016000DAA22168C2358002490FDAA22168C235BD
:100170007FFD22F9836E4E44152A7FFF6B3F8E432D
:1001800025F5A5358005652EE0D31E0FBDC37FFA8A
:100190000EFA351294E9C8AE80057EA5DD5C5A4A98
:1001A00061127FFA00ADFC90B938CE3680004F1B4B
:1001B000BCDCBFA53E0B800979FF5C28F5C28F5ED1
:1001C00015B25986C20B686DA8694AD926DD04C8E4
:1001D000D2CE9FDE656C4EAE534F34362DE472B6F0
:1001E00022A682A5DA57C0BE795B1049EE32DB2326
:1001F000D21C7CAD40314325637A193A7E565DD0DE
:10020000467C64BCE4A17F2B287FEA27A539E9A5B9
:100210007F954FB11EAD453994BA7FCA669594BE9D
:10022000C44DE15B7FE52BCC77118461CEFD7FF27D
:1002300051B71758E219652C7FF923D70A3D70A3EF
:10024000D70A7FFC4CCCCCCCCCCCCCCD80000000F1
:1002500000000000000080032000000000000000FB
:1002600080064800000000000000800D1C400000D7
:1002700000000000801A3EBC200000000000803515
:100280000E1BC9BF04000000806A1DC5ADA82B70FD
:10029000B59E80D442781F49FFCFA6D581A913BA55
:1002A00047C980E98CE083522A7EEBFB9DF9DE8E04
:1002B00086A46319A0AEA60E91C78D4949767586AE
:1002C00081750C179A931E8B3B5DC53D5DE5B52688
:1002D000446052028A20979BEA4D16A3A1D17FAFBA
:1002E000211A800220000000000000007FFF0000B3
:1002F0000000000000007FFB4CCCCCCCCCCCCCCDA3
:100300007FF823D70A3D70A3D70A7FF503126E97B3
:100310008D4FDF3B7FF151B71758E219652C7FEE07
:1003200027C5AC471B4784237FEB0637BD05AF6C61
:1003300069B67FE756BF94D5E57A42BC7FE42BCC03
:1003400077118461CEFD7FE109705F4136B4A597D6
:100350007FDD5BE6FECEBDEDD5BF7FDA2FEBFF0B79
:10036000CB24AAFF7FD70CBCCC096F5088CC7FD39D
:10037000612E13424BB40E137FD03424DC35095C5C
:10038000D80F7FCD101D7CF73AB0ACD97FC96695E8
:1003900094BEC44DE15B7FC63877AA3236A4B44917
:1003A0007FC31392EE8E921D5D077FBF6C1E4A7D48
:1003B000B69561A57FBC3CE5086492111AEB7FFC01
:1003C0002AAAAAAAAAAAAAAB7FFB08888888888832
:1003D00088897FFE01381381381381387FFF068EAC
:1003E0002542EEBFD3D7800001799680608F0961E6
:1003F0008000423C9397D3DBDF498001113F4EAE32
:10040000B5F1EB8E800140A27C8530B46FFA80029A
:1004100000DC4287798BD0D580022016AD1609F515
:10042000BA5D80024915CD4C93B8D6AE80026FDE1E
:1004300091C78336DD374EE40AD0AC01992781E0BD
:1004400075EB60E80E9452230797089548EC50919D
:1004500064005E7F5093640040937C007727882778
:100460009927662746EC40937A0040917A004074C1
:10047000E1F740917800509179005370740F851F17
:10048000911D6A9579F770588109910910927A0047
:1004900010927C0050916400516050936400089564
:1004A000435243204572726F72007777772E7061E6
:1004B0006A656E69636B6F2E637A00000E94C005E7
:1004C000E2EEF6E00E94C7050E94DA050E94BD0533
:1004D000EAEAF4E00E94C7050E94DA050E94880358
:1004E0000C94250B792F982F872F8627782F7295BC
:1004F0007F708727782F7295707F9727782F769552
:10050000769576959727782F7295770F707E872747
:100510000895FF27EE27992788276591E3DFFC37A9
:10052000E1F7E230D1F708958F938C8180933B01FE
:100530008D8180933C018F9108958BE985B980E48A
:1005400084B9E2D080EC84B985E388B917B880E833
:100550008BB98FE58AB90895F8940E9434260E94D9
:10056000C1118FEF98E09EBF8DBFF59A72C0112424
:10057000C0E0D1E01FBEE0E0F1E099E01192E03090
:10058000F907E1F78FEF98E09EBF8DBFD6DF87ECCC
:10059000809364008FEF80937E008EE3BDD080E86F
:1005A00091E08093610090936100AAEFB3E00E9414
:1005B000F1058A3008F084E08B83A9EFB3E00E9454
:1005C000F105982F11970E94F1059F3F11F488EBD8
:1005D0009BE080933D0190933E01ACEFB3E07ED170
:1005E0008D8711967BD18E87119678D18F87119642
:1005F00075D1888B0E948E23ACEFB3E0988973D1BC
:1006000011969F8570D111969E856DD111969D850D
:100610006AD15DD28FD2F5D08FE08F8B0E94A00B74
:10062000A0EFB6E080E28D93A030E9F71C920E9423
:10063000860E86E00E946F268AE0809353018093A5
:1006400054013CDFE2E3F5E584918F8F88270E9417
:1006500061076ADF78945DDFE2E0FCE76591749101
:100660006817790771F00E94C005E0EAF4E00E9483
:10067000C7050E94DA050E9488030E9488030E9431
:10068000890A58D2E2D78C819D8160913B0170919B
:100690003C01861B970B60913D0170913E017723D1
:1006A00021F08617970708F0C8C60E948C0BF29BB2
:1006B00007C03ADF49D438F30E94A11400D1E3CF38
:1006C000D2D031F0F39903C00E94A11401C0E7D544
:1006D000F299D9CFF59902C0F49BD5CF0E947C0B3B
:1006E000D2CF45542D3538203232313132390000E5
:1006F0008F9385E000C000C000C08A95E9F78F9114
:1007000008958F938DE4F7CF8AE006C084E604C095
:1007100002D001D000D08AEF8F939F939AE0F1DF4F
:100720009A95E9F78A95D1F79F918F9108959282D2
:1007300083847273746263647B7C7D6B6C6DE1DFB8
:100740008FE01C9B8F5F4F9B8F5E359B8F5D189B4F
:100750008F5C349B8F5B199B8F5A329B8F591B9BED
:100760008F58309B8F578F3039F0EE2321F4E82FCC
:10077000EF2B8F7009F0EFEFF39508958F938FB7FC
:100780008F93EF93FF93E0910401F091050131966F
:10079000E0930401F0930501EE27F1E0559ACFDFD5
:1007A0005598229ACCDF2298259AC9DF2598399A44
:1007B000C6DF39983B9AC3DF3B98F698EE2389F061
:1007C000EF3F79F0E13609F4F69AF0910601FE1751
:1007D00011F0E0930801E093060188E0809307019F
:1007E0000AC0809107018A9532F08093070119F4BD
:1007F0008FEF80930601FF91EF918F918FBF8F91C3
:100800001895109280008BE08093810082E08093A5
:10081000890080E780938800109285001092840000
:1008200080916F00826080936F008FEF88878E8346
:100830008987089510926F001092800010928100B5
:1008400008959A85903071F01A8663D68F938F70D1
:10085000875F923021F084508A3009F488279F9175
:10086000907F892B08959F93EF93FF939FEF898546
:1008700099878917D1F4F89488859887789489178F
:10088000A1F052DE813219F40E94900EEFCFD9DF31
:10089000873211F482E809C0EEE2F7E0EE3329F086
:1008A00095918917D9F78E2F8F528F3FFF91EF9136
:1008B0009F91089589870895D6DFF1F30895F29BFB
:1008C0000895D1DFE9F3813929F0982FCCDF21F0A9
:1008D000813919F40C94C111892FECCFB2BDA1BD9F
:1008E000F89A80B50895FADF891739F0B2BDA1BD35
:1008F00090BDFA9AF99AF999FECF089547382D24B8
:100900001D17120E0B091F10080408101F000010FD
:1009100008040201000000000D16000000000000A5
:100920001F0A0A0A130003021A0C0C0C0808000024
:10093000111111131D1000000E11110A1B001F1FB1
:100940001F1F1F1F1F1F101010101010101018183D
:100950001818181818181C1C1C1C1C1C1C1C1E1EEB
:100960001E1E1E1E1E1E1F1F1F1F1F1F1F1F150ABC
:10097000150A150A150A14081408140814081D1E6F
:100980001D1E1D1E1D1E01010101010101010303A8
:1009900003030303030307070707070707070F0FEF
:1009A0000F0F0F0F0F0F1F1F1F1F1F1F1F1F150AD6
:1009B000150A150A150A0502050205020502170F98
:1009C000170F170F170F000000000000001F000096
:1009D000000000001F1F00000000001F1F1F00007C
:1009E00000001F1F1F1F0000001F1F1F1F1F0000F0
:1009F0001F1F1F1F1F1F001F1F1F1F1F1F1F1F1F26
:100A00001F1F1F1F1F1F1F1F1F00000000000000CF
:100A1000001F1F1F00001F1F1F1F1F1F00000000BF
:100A2000000000001F1F1F1F1F0000001F1F0000ED
:100A3000001F1F1F00001F1F1F1F1F1F1F1F150A42
:100A4000150A150A150A060946098609C609060A7D
:100A50005B985A985998589880FD5B9A81FD5A9AEC
:100A600082FD599A83FD589A5C9A42DE5C9840CE8A
:100A70002E988295EDDF8295EBDF43CE2E9AF9CF4B
:100A80008F939F9390913A01903039F48C3509F40B
:100A900081E08E3760F08C570AC08C3511F48CE7FA
:100AA00006C08B3720F011F08C5701C080E29F9177
:100AB000E5DF8A8183958A838F91089583E0C8DF7B
:100AC0008AE02ACE04D036D080913A011EC082E45A
:100AD00084BD82E085BD8B818F93EF93FF93882344
:100AE0000AF488278A3008F08AE0FF27E82FE450CC
:100AF000F74F849187BDFF91EF918F910895909169
:100B00003A018917B1F080933A01880FE6E4FAE0E0
:100B1000E80FF11D8591F491E82F04C0E6E0F9E0BB
:100B200010923A0180E4A4DF90E48591A7DF9A95C2
:100B3000E1F708955C980E948B032E98BFDFBEDF1B
:100B4000BDDF82E0BCDF88E293DF88E091DF81E0F7
:100B500007D086E08DDF8CE08BDFE0DF1A8282E059
:100B600087DF85E0D9CD8F939F93982F9F739A83CA
:100B700080687EDF9F918F9108958F9380EC02C0F3
:100B80008F9380E81A8274DF8F91089579DF8591C1
:100B90008823E1F7089574DF81918823E1F70895B0
:100BA0008F9380E26DDF8F910895FADF9A81981715
:100BB000E0F308958F939F9380E1F8DF9F918F91E9
:100BC00008958F93892F01D08F91829501D08295BE
:100BD0008F938F708A3008F0895F805D51DF8F912D
:100BE00008950C946E040C947304300031003200AC
:100BF000330034003500360037003800390030410A
:100C000000304200304300304400304500304600A0
:100C100045270041004200430044004500412700B1
:100C20004227004327004427004127270042272767
:100C300000432727004427270045272700460000B8
:100C4000326E6400494E56006C6E207800434500B9
:100C5000434C520053425220496E6400484952208E
:100C6000496E64006C6F670043500000636F6465F9
:100C7000006C6F67320072616E6400000074616E18
:100C8000004C524E00783C2D3E7400785E320004D9
:100C90007800312F780050676D00502D3E52007360
:100CA000696E00636F730054656D7000783C2D3E73
:100CB000790073696E6800636F73680074616E68B1
:100CC0000000496E64005353540053544F00524384
:100CD0004C0053554D00795E7800496E7300434DCA
:100CE000730045786300507264004261740078219B
:100CF000006C6E207821006C6F67207821006D6F8A
:100D0000643200007C787C00425354004545002842
:100D10000029003A0044656C00456E67004669781A
:100D200000496E74004C4344003C3C003E3E00725F
:100D30006F756E64006D6F64000044656700475412
:100D40004F0050676D20496E640045786320496EFE
:100D5000640050726420496E6400780050617573BD
:100D60006500783D74004E6F70004F700052656CE6
:100D700000496E6320496E640052656720496E64C5
:100D800000494620496E6400414E440000526164AF
:100D9000005342520053544F20496E640052434C5A
:100DA00020496E640053554D20496E64002D004C5F
:100DB000626C00783E3D7400537461742B004D6585
:100DC000616E00494600000000584F520000477213
:100DD000616400525354004849520047544F20491F
:100DE0006E64004F7020496E64002B0053742066BF
:100DF0006C6700496620666C6700442E4D53007096
:100E00006900526567004845580042494E004F430B
:100E100054004F5200004C69737400522F5300521B
:100E2000544E002E002B2F2D003D00577269746523
:100E30000044737A004164760050727400004445A7
:100E40004300496E63004E4F54002500000000002F
:100E50002E2E2E656D7074790000000000000000D9
:100E60000000000000000000000000000011000071
:100E7000000000000001000000000111010011004D
:100E80000000000000000505000090110190101105
:100E9000B20090110191000B0000001101E5000269
:100EA0000000000000E000000100E2E3F5E5E80FCB
:100EB000F11DE80FF11D0590F491E02DEE5CFA4A6A
:100EC0000895EF8DE3958E1710F00C94AC0288A373
:100ED00089A31AA21BA2E8EEF3E0882329F0E5DF3C
:100EE000EAA3FBA38395E1DFECA3FDA30895E0E56E
:100EF000FEE08F3F69F0EEE4FEE0803A48F4EAEE6F
:100F0000FBE0882329F095919923E9F78A95D9F791
:100F10000895EF93FF938827EAA1FBA1AE17BF07BF
:100F200080F0ECA1FDA13197EA17FB0750F088A1F2
:100F3000882319F456DE119603C0FD018591DF0167
:100F40008894FF91EF910895AF93BF93AC8DBD8DC1
:100F5000E0DFAC8FBD8F08F4F298BF91AF91089598
:100F60009F939AE0092E982F92959F70909D8F7075
:100F7000800D11249F9108959F937F93982F0E9435
:100F800092227AE0789F901911248295892B7F9183
:100F90009F910895D9DF8034089459F4D5DFE0DFBC
:100FA0008E3610F00C94AC02885F8DD60E94592AC0
:100FB00088940895EED3ADD27FCC1ED4AAC2F29B02
:100FC00003C0E8DF88940895F5DFF7DF803148F04B
:100FD000803419F40ED010F0E3CF6CDC882708942D
:100FE000089588940895F29B04C0AEDFB9DF889419
:100FF0000895E0DF803110F0E0DFEACF8F935CDC12
:10100000DCDF9F91803120F055DC892F8894089592
:10101000EAE0E99F800D112488940895F29994CF15
:10102000C9DF803108F0C9CF8F9346DCC6DF9F91BE
:10103000803118F03FDC892F08959295892B08950F
:10104000EF93FF93803A08F088278F93EAE5FEE05C
:101050008695E80FF11D8491EF91E0FD82958F70E8
:10106000FF91EF9108956F937F939F93982FAAA17B
:10107000BBA166274EDF90F1823211F461E0FACF16
:10108000883511F46623A9F7863729F442DF30F159
:10109000891731F1EECF823839F43BDFF8F0119740
:1010A000803C8AE010F482E8CBDF782F72FF07C023
:1010B0007A952FDF98F0803411F42BDF78F073FFEE
:1010C00009C07A9526DF50F0803411F0803110F499
:1010D00020DF20F07370A70FB11DCBCF0C94AC02B2
:1010E0009F917F916F910895F29B1DC02DDF8031FC
:1010F00048F4A4E68A9FD001112426DF31DFA80F2F
:10110000B11D0895803461F41FDF2ADF8E3610F0A0
:101110000C94AC02885FD7D50E94402ADC01089568
:10112000B82FAA27089546DF8B3211F40E940E08CB
:10113000803128F042DF803499F755DFE7CFA82FC0
:10114000BBDB803120F039DFB5DBBB270895BAE087
:10115000BA9FD0011124A80FAFDB2FDF8031A0F799
:10116000BAE0BA9FD0011124A80FB11D0895A82F8D
:101170000E94C32294E6989FA0191124AF9302D035
:101180008F91FADEF39B089598A19923E1F7AC8D36
:10119000BD8D93E0A83EB907B0F7982F24DD1196D6
:1011A000AC8FBD8F52C2F2990895F39902C0F39AA1
:1011B00001C0F3984AC2F2990895772311F0F39B86
:1011C000D0D2C2DEF39908C08F930E9498138F91FA
:1011D0000E94A1140E94C11138C2AC8DBD8D93E054
:1011E000A83EB90710F0A7EEB3E00895F29908956C
:1011F000F39B089598A19923E1F7EFDFF2DC8F3F8D
:1012000031F4119683E0A83EB807C1F7F2CF9FEF03
:10121000EADC982F8F3F29F0119683E0A83EB807AB
:10122000B9F713C2F2990895F39B0895AC8DBD8D63
:101230008AA1A8178BA1B807C1F31197AC8FBD8FF6
:1012400004C2F2990895F39B089598A19923E1F7B8
:10125000C4DFFD01C6DC8F3F31F4119683E0A83E68
:10126000B807C1F7F1CFAE17BF0711F0FD013197F5
:10127000B8DC8F3F31F0119683E0A83EB807C1F784
:1012800011979FEFB0DC982F1197AE17BF07D2F7D9
:10129000DCC112DB803411F00DDB08940895772750
:1012A000C6D211F091D271E0813309F47CCF813440
:1012B00009F481CF813509F4B5CF98A1992371F74D
:1012C000823221F4772309F44CD20DC0863409F41C
:1012D0008DCF863509F4B5CF8B3209F451C58637E9
:1012E00021F450DFE9DA4EDFB0C18A3771F4772399
:1012F00061F0AC8DBD8D119742F073DC823221F428
:101300009DE671DCA2D12AC08AE7813769F4772390
:1013100059F0AC8DBD8D11973AF063DC823219F42F
:1013200092E961DC92C181E78F932CDF8F9164E8B1
:10133000893629F4AEDF38F471DE24DF86C167E236
:10134000823851F4A6DFD0F569DE8F931BDF8F91D1
:10135000803C08F04FC079C18A3731F45FDE12DF7C
:1013600074D141DE0EDF46C08A3861F457DE0ADFF1
:101370006CD18FDF48F0AC8DBD8D12979CE633DCCD
:1013800064D102C08A3619F42EDEFBDE5EC162E64D
:10139000863391F062E7823479F063E7833461F059
:1013A00064E7843449F063E6883431F064E68934D4
:1013B00019F06BE68C3949F46CDF30F3962FAC8D65
:1013C000BD8D119710DC41D1DFCF63E8813619F074
:1013D00066E2813759F45DDF88F76EDA803108F014
:1013E00082CF68DA81DECD01C2DE2FC1873611F0EF
:1013F000873721F44EDF88F3C5DEC6CF873811F07A
:10140000873911F403D0F6CF863849F442DF20F053
:10141000B9DEE9DDB6DE19C1D2DDB4DE16C108954C
:101420008F9380E0809353008093680080936D00D9
:1014300086EC809364008F911895F398F299A1D768
:101440008E818F3FE9F70E941A0414BC15BC84E01A
:101450008093680080E880936D0015B814B818B8C0
:1014600088E087B980E88BB91AB880E690E4809369
:101470005500909355008FEE8093640081E0809337
:10148000530085E08093530078948895F89487EC16
:1014900080936400109253001092680010926D00C7
:1014A0008FEF98E09EBF8DBF0E949D0234D90ADB6A
:1014B0000E94010478940E94250B28D98E818F3FC9
:1014C000E9F7898788870C9429030C948B290C945D
:1014D000AB29446567005261640047726400426949
:1014E0006E004F6374004865780020454500456EE6
:1014F0006700326E000033640000496E0000202057
:101500002000202B2D267C022A3A012F253C3E5E0E
:101510000420F2990895F3990895B1D1E9F7B8D16B
:1015200059F08F93EF93FF932BDBE0EFF6E034DB82
:10153000FF91EF918F910895A8D169F0C6DFF7D19F
:1015400086E0C1D30E940E201BDBE9E2F1E024DB40
:101550000AD2BDDF08958F93EF93FF9311DB898D3E
:10156000E2EDF4E1813028F0E6EDF4E111F0EAED8E
:10157000F4E10DDB8E8DE2EEF4E1823049F0E6EE2F
:10158000F4E130F4EEEDF4E1813011F0EEEFF4E14E
:10159000FEDAEF89EF3019F403DB02DB04C086E4E6
:1015A0006FDA8E2F15DBEEEEF4E14CD131F4EAEE7A
:1015B000F4E145D111F4EEEFF4E1E9DAE2EFF4E120
:1015C0008A85813029F0E6EFF4E110F4EFEFF4E1E1
:1015D000DEDAEAEFF4E12BD111F4EFEFF4E1D7DA40
:1015E00040D18FE371F40E94251D8F70E2E0F5E198
:1015F000E80FF11D8491803221F4EB89EE2309F08C
:1016000088E23EDAFF91EF918F91089582DC08F035
:10161000DCCA1196C5DAC4CAA6DAAC8DBD8D8CA120
:101620009DA1A817B90780F4CD01EAA18E1BEBA1FB
:101630009E0BB0D188A188238AE209F480E220DAE7
:10164000E5DFAEDA54DCA3DAB5CA63DF2BD0F39B57
:1016500008958F939F93AF93BF93EF93FF9390DA87
:10166000AC8DBD8D8CA19DA1A817B90720F0DC0120
:101670001197AC8FBD8F1297C9DF92DAC7DF90DA6E
:101680008BE5FED9C3DF8DE5FBD98ADABFDF88DAC7
:10169000BDDF80E4C1DFFF91EF91BF91AF919F91DA
:1016A0008F910895F2990895F39908950EDFF099B6
:1016B00004C087E008D30E940E20E1D041F060DA38
:1016C000E2EBF1E098E0819180DA9A95E1F755DA62
:1016D000E9E2F1E061DAFBDE08958F93EF93FF9387
:1016E0004FDAEEECF6E058DA48DAEFEDF6E054DAED
:1016F000FF91EF918F910895F299EFCFF3990895AB
:101700000CDF9C819F73953108F0CCCF36DA85E4ED
:10171000F59986E4B5D94ECAF29B0895988197FB56
:101720009068F69B9F77988316F4F69BD6DFF69B1E
:101730000895A5D011F480E06FDFB8DF0C948B031F
:10174000AEECB6E080E28D93AE3DE9F71C92AFEDD2
:10175000B6E083E48D9380E28D93AF3EE9F71C926F
:1017600008959F9391E08F938881892B88838F912F
:101770009F9108959F9392E0F6CF9F9394E0F3CFCB
:101780009F9398E0F0CF9F9390E1EDCF9F9390E2ED
:10179000EACF9F9390E4E7CF9F9391E08F93898165
:1017A000892B89838F919F9108959F9392E0F6CF23
:1017B0009F9394E0F3CF9F9398E0F0CF9F9390E1B5
:1017C000EDCF9F9390E2EACF9F939EEF8F93888116
:1017D000892388838F919F9108959F939DEFF6CFE2
:1017E0009F939BEFF3CF9F9397EFF0CF9F939FEE45
:1017F000EDCF9F939FEDEACF9F939FEBE7CF9F9312
:101800009EEF8F938981892389838F919F9108957A
:101810009F939DEFF6CF9F939BEFF3CF9F9397EF0F
:10182000F0CF9F939FEEEDCF9F939FEDEACF9F93D5
:1018300091E08F93888189238F919F9108959F9341
:1018400092E0F7CF9F9394E0F4CF9F9396E0F1CF8F
:101850009F9398E0EECF9F9390E1EBCF9F9390E220
:10186000E8CF9F9390E4E5CF9F9391E08F93898198
:1018700089238F919F9108959F9392E0F7CF9F9333
:1018800094E0F4CF9F9398E0F1CF9F9390E1EECF57
:101890009F9390E2EBCF8F3071F09F93982F8A8DBA
:1018A000983020F08B8D981901C086959A95EAF7AB
:1018B00081709F9108958827F499839508958F30BA
:1018C000B9F08F939F9391E0883050F0885001C019
:1018D000990F8A95EAF78B8D892B8B8F06C0990F0C
:1018E0008A95EAF78A8D892B8A8F9F918F91089527
:1018F000F49A08958F30C9F08F939F9391E08830C8
:1019000058F0885001C0990F8A95EAF78B8D892B82
:1019100089278B8F07C0990F8A95EAF78A8D892BC3
:1019200089278A8F9F918F910895F49808958F93B6
:10193000AF93BF93EF93FF938881809350018D897C
:10194000809351018E8980935201A9E2B1E0EFE3C7
:10195000F1E08D918193A933E1F7FF91EF91BF9170
:10196000AF918F9108958F93AF93BF93EF93FF93B0
:10197000809150018883809151018D8B809152011B
:101980008E8BAFE3B1E0E9E2F1E08D918193AF346A
:10199000E1F7E3CF6F938F939F930E94641F982F7B
:1019A000862F6ED8892F03C06F938F939F930E94C9
:1019B0006C1F982F862F64D8892F62D89F918F91A2
:1019C0006F91089513DF82E08D8B1E8AA9E2B1E04A
:1019D00080E28D93A833E9F780E38D931C920895FC
:1019E000E9E2F1E08D899E89980F903178F090813D
:1019F0009D3211F0903231F491819033908121F039
:101A0000903231F00894089591838A9583958D8B57
:101A10008E899FE0981B818181939A95E1F770836D
:101A200088940895E9E2F1E070E28D899E89980F2B
:101A3000903160F09081903211F09D3249F49181A3
:101A40009E3221F4708190E3908383958A958D8BEB
:101A50008E899FE0981BE90FF11D829181839A95F1
:101A6000E1F770830895F09AC4DEACDFEECDF19A11
:101A7000F09B0895F098F19A0E94CF2187E028D139
:101A8000E4CD0895F4DFF29B28CE08958A3008F063
:101A9000895F782F705DF09BE6DFE0DE71F17A33CD
:101AA00058F596E08E8D803011F0833009F495E082
:101AB0008E898917C0F4823029F498AD903311F4DF
:101AC00078AFC3CD9D89980F9D8B1E8A8F9388DF39
:101AD0008F919D8928F08395981B9D8B8E8BB5CD1A
:101AE000981B9D8B8E8BE9E3F1E08A959291708330
:101AF000792F8A95D9F7A9CD08958E8D803011F46C
:101B00007A33D0F7813011F47233B0F7823011F4A8
:101B1000783390F78D89823051F4E8E3F1E08E89D3
:101B2000E81BF1098081803311F4708301C058DF14
:101B30008CCD87E0C8D00E940E20F09A0E94CF2161
:101B400087E0C6C039F07EDE21F447DEF19AF099D5
:101B50002AD07BCDF09BEDDF75DE19F40BDEF19A18
:101B6000D8DC8E89882369F47BE23ADF58F070E391
:101B700037DF10F457DF69CD8D8982508D8B82E07D
:101B80008E8B04DE62CD11F02BDE01C0F6DD25DE8A
:101B90006EDF5BCD21F06BDF8FE08F8B56CD67DF83
:101BA0000EDAD8F7089525DE8E89823049F488ADA3
:101BB000803331F41E8A8D898E5F8D8B33DF32DF67
:101BC000089551F4F09B4FDFEEDF45DE21F47EE215
:101BD00007DF08F0D8DD39CDF09BABDF36CDF099CB
:101BE00005C0F19A72D0C741E7012FCDE9E3F1E0DA
:101BF0009BE28E89E81BF10931DE51F490E28D8978
:101C0000E81BF10980818D3239F0803221F008958E
:101C100080818D3209F09DE2908317CD0E94682665
:101C200090818181019629F482810E94DD238F6752
:101C300082830895F498F59808CDF09B08955E8905
:101C4000552311F0A3DD02C006DE11F010D0F7CF4E
:101C50000895F49902C0F59B08C0ECDF87E0DEDF51
:101C600086E0DCDF85E0DADFF0CCF09B2AC05E891D
:101C7000F5DDB9F0523041F498AD903311F493DFB3
:101C800021C090E398AF1EC05523E1F06D89650F28
:101C90006D8B1E8AC7DE6D895A95651B6D8B5E8BB9
:101CA00011C0E8E3F1E0E51BF1096D89623019F438
:101CB00080E38083CACC80818E3209F497DDB2DE66
:101CC000C4CCF19AC2CC0C9475260C94162687E0ED
:101CD0000C9473260C9440050C943C250C94370D01
:101CE0000C94250B4D61696E2050726F6772616DA7
:101CF000000020436C6561723F2028313D594553F7
:101D00002920000031363731353332350E943426F0
:101D100091DF8ADD0E948E051A865FDDA4DEF9CB95
:101D20008A858395833008F080E08A87F2CB772319
:101D300011F04ADDEECB15DDECCBD0DF80E0CCDF5F
:101D400086E0C6DFF299089588A18823C1F40E9435
:101D5000C005E2EFFCE10E94C7058FEF0E945A0424
:101D60000E945C04813051F4B8DCA7EEB3E09FEF31
:101D70000E9473041197E2F71C8E1D8E66CC0895A5
:101D8000F29908950E940E080C945A04A7DF9DDF73
:101D9000C7C6E7E6010059CCA1DF9B89992349F426
:101DA0000E94251D8F7029F490DFC7C5E7E501006B
:101DB0004CCC87E00E946826AAE09A9FD001AF5FD2
:101DC000B84F11240E940A2940CC86D0C0F07BDF96
:101DD0000E94592AA0F099F40AC031F07FDF88A14F
:101DE0006BD0F29908951DC00E94F30740F09F8DBB
:101DF000981710F40C943D29F29989A3F29908954B
:101E000098A1992321F49C8D9EA39D8D9FA359D8C1
:101E100088A188238EA19FA111F08AA19BA18C8FFC
:101E20009D8F0E94C00588A1882329F4E4EEFCE17F
:101E30000E94C70518C08F8D839537D885914ADFDA
:101E4000849148DF8DE246DF88A1AEDD0E94D00597
:101E500088E240DF8CA19DA1EAA18E1BEBA19E0B25
:101E600099DD89E237DF0E94DA050E948B030E9428
:101E70008B030E948B034DCB39F030DF26DFC6C7C2
:101E80005C5AE7E60100E1CB29DF1FDFC6C7595BDB
:101E9000E7E60100DACB71F492D858F08A3048F4C2
:101EA0008B83982FAAEFB3E00E9473040E9462050F
:101EB000CCDB089513DF8B810E94132A08DFF19A8F
:101EC000C4CB0AD040F0FFDE0E94592A10F009F47A
:101ED00038C50E943D2908957F9300DF0E94F307D3
:101EE00020F08E3620F00E943D297F910895885F72
:101EF00088947F9108957F93EFDF68F0E4DE0E947D
:101F0000592A38F031F48E3620F4885F7F91889416
:101F100008950E943D297F910895EDDF40F002C0B1
:101F2000DBDF28F08F9387E0CEDE8F91D1CE08954E
:101F3000E2DFE8F302C0D0DFD0F3C5DEC8DE85CB38
:101F4000DADFA8F302C0C8DF90F38F937F93BBDE84
:101F500087E0B9DE7F91772311F00E9403240E946D
:101F60006E278F91B5CEC7DF10F302C0B5DFF8F250
:101F70008F937F93A8DE7F91772319F00E94BE2371
:101F800002C00E94BB238F91A3CE7F93A7DE80E087
:101F9000A3DE7F91772351F0A1DE87E00E946F26B8
:101FA00086E00E946F2689E09EE002C088E095E707
:101FB0008F939F930E946F269F918F91839589178E
:101FC000B9F786DE42CB97DFE8F302C085DFD0F3B6
:101FD0008F9379DE87E077DE8F917ADE78DE35CBFE
:101FE0008ADF80F302C078DF68F38F937F936BDE24
:101FF00087E069DE7F91772319F00E94052702C0F0
:102000000E949B268F9164CE7F9368DE0E941B0204
:102010007F91772371F0805F904012F48827992791
:102020008233910510F082E39927880F0E94142AC9
:1020300006C00E94142A89E04FDE0E949B2647DEDC
:10204000F19A03CB7F934ADE7F917723A1F40E941C
:102050002602855F9109FC01ABEFB3E00E94F10518
:10206000992788230AF49FEF8E0F9F1F0E94242A2E
:102070002EDEF19AEACAF299089587E024DE0E94E2
:102080005E2AA82F0E942602855FA81B9A2FABEF1D
:10209000B3E00C94F3057F93F5DC87E014DE7F91C9
:1020A000772319F40E944E2802C00E9405280FDEF3
:1020B000F19ACBCAE7DC87E006DE0E946428F7CFFE
:1020C000E1DC87E000DE0E9464288FE00E943C256E
:1020D0000E949B26ECCF80E0898F1BCAFDDE30F08A
:1020E000F2DD0E94402ADC0108F021F00C94AC02E1
:1020F0000E94740890D1AC8FBD8FA7CAF29B08953F
:10210000F298A3DA0E948B03F29AE7CA7F93E6DD86
:10211000DCDDC7C628010E9448267F9131F0772375
:1021200031F40E94E5280C9474087723D1F70E94BB
:10213000E528DECF7F93D2DDC8DDC7C628010E9427
:10214000452682818078E9CF8F9327D08F918F9316
:102150008D3609F434D0903031F0973021F098303A
:1021600011F09F3021F482D08F9140F4089532D045
:10217000D8F38F918D3609F44FD060D09770E4E09A
:10218000FDE1E90FF11D84910E94C1230E94592AAB
:10219000882309F0ADCF0C9474080E940E08982F84
:1021A00092959F708F7093FD03C0885F0C94682692
:1021B000EAE08E9FF0011124EA5FF94F08959F93A2
:1021C0000E9476260E94592A9F918E3660F4885F7D
:1021D0000C946826EF93FF939F930E94F3079F91BF
:1021E00020F08E3630F00C94AC02FF91EF91089401
:1021F000089593FF09C08031B0F7AAE08A9FD0010B
:102200001124AA5FB94F04C0885F0E946826DF01CD
:10221000FF91EF91889408959F93EF93FF93FD01B1
:102220000E9476260E94592A8E36E8F6885F0E9420
:102230006826DF01FF91EF919F9108959F93EF939F
:10224000FF93AF93BF930E947626BF91AF91FF910A
:10225000EF91EF93FF93AF93BF93FD010E9476261A
:10226000BF91AF91FF91EF919F910895EF93FF93ED
:102270009F930E9476260E94F30718F00E94132A6B
:1022800088949F91FF91EF9108957F938F9385DFBD
:1022900092FF01C094DF90FD91FF05C0E7DF8F91B1
:1022A00048F47F91089596DF8F91D8F38C3609F426
:1022B000B3DFC4DF7F919370772309F09460EF93CD
:1022C000FF93903029F40E9409290E94E5282EC02E
:1022D000913019F40E946E2729C0923019F40E949F
:1022E0009B2624C0933019F40E9409290CC0943015
:1022F00069F4AF93BF930E940929BF91AF910E94E7
:1023000045260E94FF290E94E52810C0953019F447
:102310000E946D270BC0963019F40E9405274BC10F
:102320000E9409290E94E5280E940324BF91AF91D1
:102330000E9445260E94FF290C94E52808957F936A
:102340000E94F307AC8DBD8D7F91772319F0A81BF8
:10235000B10902C0A80FB11D8AA19BA1A817B90796
:1023600028F08CA19DA1A817B90718F00E943D295B
:1023700008C0AC8FBD8F089581E0AECE88A58823BC
:1023800019F4F298DDD961C98A9588A7EFE1F8E0E0
:10239000E80FF11DE80FF11D0190F0810C8EFD8F0B
:1023A000EFE3F8E0E80FF11D80810C946107B82F8E
:1023B000AA270CC091DDA8F186DC0E94402ADC012E
:1023C00080F179F503C0D1F60E94740888A18F933B
:1023D00089A10E9461071FD0F29B18A688A58031B1
:1023E00000F58395F29988A7EEE3F8E0E80FF11D78
:1023F0009F919083880FEDE1F8E0E80FF11D9C8D2F
:1024000091939D8D9083AC8FBD8FF2990895F29A30
:1024100064D90C948603B03130F08B2F0E943308BE
:1024200030F40C94AC028AA1A80F8BA1B81F8AA12A
:102430009BA1A817B907A8F38CA19DA1A817B9075C
:1024400080F7089511F08DD964D8F2990C94A407FF
:102450000895A1F043DC39DCC9C728E9CAC764285C
:10246000EACB40EBCCC628ECCDC66428EDCEC6C77F
:102470002228EECBE7C640E60100E7C82FDC25DCCA
:10248000C9C729E9CAC76429EACB3FEBCCC629EC06
:10249000CDC66429EDCEC6C72229EECBE7C63FE6FE
:1024A0000100D3C879F01ADC10DCCDCC64CB232832
:1024B000CB402363E6CAC964CB2328CB402363E720
:1024C0000100C3C80BDC01DCCCCB23E6C9CB23E77E
:1024D0000100BBC882E000CE18A61A8E1B8E88A110
:1024E000882321F0F29888270E9461078AA18C8FA7
:1024F0008BA18D8FAAC88F930E940E08982F9F7072
:10250000AAE09A9FD001AA5FB94F11249F919732F8
:1025100079F48F93FD010E9476260E94592A8E3607
:1025200010F00C94AC02885F0E946826DF018F9146
:10253000AF93BF938F930E945C260E9455260E9402
:10254000FF298F91807F31F40E94E528C7DB87E067
:10255000BADB6CC0803129F4C1DB87E00E946F26B2
:1025600065C0803219F40E94292460C0803331F4A0
:10257000B5DB87E0A8DB0E946E2758C0803431F4B9
:10258000ADDB87E0A0DB0E949B2650C0803531F494
:10259000A5DB87E098DB0E946D2748C0803631F4C8
:1025A0009DDB87E090DB0E94052740C0803719F44F
:1025B0000E94BB233BC0803819F40E94BE2336C062
:1025C000803939F48BDB87E07EDB0E9409297FDBD1
:1025D0002DC0803C19F40E94E82304C0803D29F4FA
:1025E0000E94EC23BF91AF9114C0803E11F480E0B3
:1025F00003C0803FA9F481E00E943C250E94092984
:102600009DD0BF91AF910E9445260E94FF290E9454
:10261000E5280E94592A882309F46ACD0C9474088D
:10262000BF91AF91803A09F45CCDC7CEBF91AF9115
:102630000E9445260E94FF290E94E52806C839F01D
:102640000E94DF0768F0803148F40C947A0C0E94F5
:10265000DF0730F0803110F40C945F0C0E943D29AC
:10266000089549F00E94DF0798F0803168F40E94D5
:102670004B0C61F43DCD0E94DF0750F0803120F417
:102680000E944B0C19F034CD0E943D290E94740821
:10269000089591F023DB8CE30E94132A16DBC70315
:1026A00045A72804220345038922C729E728228A4F
:1026B00022C729E7010014CB11DB84E20E94132A10
:1026C0008CE30E94132A01DBC70345A7288822094F
:1026D0000445030A23C729E7280923C729E701007E
:1026E000FFCAFCDAF2DA96E70100FACA19F00E9492
:1026F000D80B02C00E940B0CF1DA83E08E8FF0CA77
:1027000019F00E94D80B02C00E940B0CE7DA81E09E
:102710008E8FE6CA19F00E94D80B02C00E940B0CE3
:10272000DDDA82E08E8FDCCAA2D90895F29929CE33
:10273000F29A22D10C9486039AD90895C6DA033B03
:10274000120D02033410054003390F033F033A0909
:102750000A11013B0948010008950E94DF07C0F0FB
:10276000803190F48F93872F0E94132A8F91885F76
:102770008F93A9DAE3DF8F91ABDA0E94592A88237D
:1027800009F4B6CC0C9474080E943D290E94740888
:1027900008956DD908956BD90895A0DA96DA9EE769
:1027A00001009ECA19F00E94D80B02C00E940B0CB7
:1027B00095DA80E08E8F94CA91DA87E084DA0E94FD
:1027C00003240E94BE238E8D8030B1F00E944526E6
:1027D000828188238AF481E00E943C257E8D8EE0F0
:1027E000723018F08AE209F088E390E80E944526EA
:1027F000908381830E946E276ADA0C94250B0C94D7
:102800001D0A8C1A8C1A8C1A8C1A8C1A8C1A8C1A17
:102810008C1A8C1A8C1A8C1A8C1A8C1A8C1A8C1A88
:102820008C1AAE23AE23AE23AE23AE23AE23AE234B
:10283000AE23AE23AE23AE23AE23AE23AE23AE2310
:10284000AE23FE27201D2E1D4A3D521C0C1DB42315
:10285000F624603D3A1D3C23801D763D8C3D3C2393
:102860003C23A43DA6118C1DBE3DC83DD23DDA1DC2
:10287000781EDC3DF63D4420981D543E723E903E4D
:102880003C23C21EB611201F361F461FBE3CEC1152
:102890008A1FCC1FE61F08209620B420C0202E3CA3
:1028A0003C23103E2412441B3C3B443B1C3C421244
:1028B000861B941B283E961EAE3CB63C3E3E263CF4
:1028C0003C23D620F020CA1DC61FE01FD23BFC20AF
:1028D0000C213C23762E3E23661F8A224821BA3BD8
:1028E0003C237823C6231A1F301F401FB03B4424CB
:1028F00034215224A42448213C233C233C23C23BC2
:102900003C23D424D824F624DC201E2D5E3B3E2616
:1029100062269226E2268A22EC2600271427CA3B4A
:102920003C2328272C277C23C21BDE1B0E3D382787
:102930005A27922796279A27A4276C1FB827363C38
:102940003C2377270E94170C39F00E94E40B8F93E9
:102950000E94890A8F9171E0803A68F4E2E0F8E21F
:10296000E80FF11DE80FF11D0590F491E02DF695AB
:10297000E7957723099408950C946D0B0C94162613
:102980000C947526204C6F61643F202028313D59FE
:102990004553292000002020202020204F4B2020BC
:1029A000204552524F52446961676E6F7365202013
:1029B000526573756C74202020496E7075742020E8
:1029C00020456E746572202020496E646578202051
:1029D000202020526F772020436F6C756D6E436FFF
:1029E0006E74696E75652020202053544F5020204E
:1029F0004D617472697820436F6D706C657820202A
:102A00004E756D62657220456C656D656E74202033
:102A100020204974656D2020205072696E7420203A
:102A2000202066726F6D202020202020746F2044AB
:102A30006973706C61792050726F6772616D2020CC
:102A400020204C6F61642020202053617665202077
:102A50002020205945532020202020204E4F202088
:102A600020202041646453756274726163744D75F3
:102A70006C7469706C7920204469766964652020E3
:102A800020506F77657220202020526F6F742020B5
:102A900053717561726520202020204B65792020BC
:102AA000427574746F6E2028313D5945532920209A
:102AB000566563746F72204C69627261727920206E
:102AC00020466972737420205365636F6E64202002
:102AD0002054686972642020466F757274682020E3
:102AE000506172616D2E202020456E747279202015
:102AF0004F757470757420202020526F77732043B7
:102B00006F6C756D6E732020202053697A652020CC
:102B100020526561647920204C616D6264612050AF
:102B20006F6C796E6F6D202020416E676C65202080
:102B3000202053696465547269616E676C6520205A
:102B400020204172656120506572696D6574202096
:102B500052616469757320204172634C656E202058
:102B60002043686F72642020532D417265612020DC
:102B70002020204C6F77202020204869676820544F
:102B80006F6F204C6F7720436F7272656374546F60
:102B90006F20486967682020202047616D652020EC
:102BA000202054696D6520576F726B696E67202015
:102BB0002020202E2E2E202020202057696E20201D
:102BC00020204C6F737342616E6B726F6C6C20537C
:102BD00075636365737320202043726173682020DE
:102BE00020204661696C2020205370656564202098
:102BF00020436865636B204C616E64696E67204D8D
:102C0000697373696F6E436F6D706C657465204690
:102C100061696C7572652020536D6F6F7468202038
:102C200020205475726E2020205475726E73436F8D
:102C30006D707574657220202020596F7572202088
:102C4000202020596F752020202020204D79202021
:102C500020204C6F7374202020436F756E742043C6
:102C60006F756E7465722020202043616C63202094
:102C700043616C63756C43616C63756C6572202095
:102C8000202020576F6E202020205761697420205B
:102C900020507265737320202061204B6579526546
:102CA000616374696F6E526573706F6E7365202017
:102CB00020416C69656E2052756E6E696E672020CA
:102CC0002020546573742020202048656C702020DB
:102CD0002048656C6C6F202020576F726C64202038
:102CE0002045542D353850726F67726573732020FC
:102CF000204772617068202020426C61636B202045
:102D000020576869746520204865696768742020C9
:102D10002057696474682020202020435243DCD867
:102D200098F02EDE0E94592A78F071F4A6C00E9415
:102D3000A31E87E025DE0C94592A8F9386E020DEBF
:102D40000E94592A982F8F910895E0EFF6E007C06E
:102D5000EFEDF6E0AAEBB6E004C0EEECF6E0A6EA92
:102D6000B6E0EF93FF930E945C260E9455260E94D6
:102D7000FF290E9408240E9429240E94DE29EAE1FA
:102D8000F2E00E9449250E949B2678E07F9388E02C
:102D90000E943C250E949B260E9405290E94592AD8
:102DA0008F930E94132A0E9403240E946E278F9102
:102DB0007F91FF91EF91843608F080E0805E8193EF
:102DC000EF93FF937A9511F70E94E528FF91EF9119
:102DD0000895D4DDCECCC922CB2328CDCC64CB231F
:102DE0002823A6CC22C92841CB23E7010895888F48
:102DF000AAD787E0C5DD0C94102080915501882367
:102E000011F40C94AC028A95809355010895809139
:102E10005501909154018917A0F78395F5CF15D0EE
:102E200001C017D08F93ACDD8F918395A9CD0DD0C4
:102E300001C00FD08F9383950E946F260E940929AD
:102E40008F910E946F260C94092980915501825020
:102E500003C0809155018A9590915401891788F695
:102E600090915301980F68F2980F58F29D3648F6EA
:102E7000985F892F08950E940E088C38A0F4EAE22A
:102E8000F9E3E80FF11DE80FF11D0590F491E02D35
:102E9000F695E7950994E6EAF6E084E00E94D823E7
:102EA0003A968A95D9F708958F934DD78F919AE0E6
:102EB000989FD0011124A456B94FE0EBF1E00E9495
:102EC000FF293FC740D708953ED708953CD70895BE
:102ED0003AD70895F299089588A18823E1F333D76A
:102EE0000E94C005E4E8F9E20E94C7058FEF0E9446
:102EF0005A040E945C048130D1F43EDDEAA1FBA1BA
:102F0000AA27BB270E9455260E94890708F48FEF45
:102F1000982F0E9455260E9473041196A83E91F79F
:102F2000B33081F788270E9461071C8E1D8E09C768
:102F300014DFA0EBB6E015DF0AC088E058DF0DDF34
:102F400098E0A9E2B1E08D9181939A95E1F7F29929
:102F500013DDF7D608958CE04ADFFFDE34979CE05E
:102F6000F0CFF6DEA4ECB6E0FCDEF1CF88E03FDF88
:102F7000EFDEE6CF8CE03BDFEBDEF0CF0C940E1FF4
:102F8000E2D6FCDCCDCB23CCCB236428E6CACB2312
:102F9000C9CB236428E70100D4C6D5D61ADFD1C631
:102FA000D2D6ECDCCECCC922CB2328CDCC64CB232B
:102FB00028CAC964CB23282223E70100C2C6C3D68E
:102FC00086E0DEDC87E0DCDC04DFD8DCC622C72953
:102FD000E7E60100B6C60E94370D86E0D1DC87E047
:102FE000CFDCF7DECBDCC728C623E7E60100A9C6A5
:102FF0000E94370D8FE10E943C250E94670EA1C6FA
:1030000087E0F49B0C945F0C089587E0F4990C948E
:103010005F0C08959ADEA0EBB6E0A3DE98CF88E0BF
:10302000E6DE93DE8DCF8CE0E2DE8FDE97CF0E946E
:10303000110C0E94140C85C60E94DE0B0E94140C19
:1030400080C60E94E10B7DC68F70885F8F9398DCED
:103050000E94BB238F910C9473268F70885F8F938F
:103060008FDC0E94BE23F6CF0E946E0E0E943304B6
:103070000E94132A0E94670E64C659DE9E8189173A
:1030800080E0B1F781E0F4CF52DE57DE843608F0FD
:103090008827805EEEECF6E0903150F09051EFED35
:1030A000F6E0903128F09051903140F4E0EFF6E0F6
:1030B000E90FF11D8083F2995FCC43C6089537DE96
:1030C000853010F40E947F05089531DE882339F0A1
:1030D0008F938AE00E948C038F918A95C9F7089597
:1030E00026DEEEECF6E020F009F08827803508F0C7
:1030F00080E590E1A0E288232AF0A0E8853010F472
:10310000A82FA5588550A1939A95A1F781E00E9418
:103110007F05F29931CC15C60ADEEFEDF6E0E3CF7C
:1031200014DE0E94E10B03DEE8EFF6E020F009F088
:103130008827883208F088E298E0DCCFF8DDEEEDF1
:10314000F6E020F009F08827803508F080E590E16E
:10315000A0E288232AF0A0E8853010F4A82FA55813
:103160008550A2939A95A1F782E00E947F05F2997B
:1031700003CCE7C5DCDDEFEEF6E0E3CFE6DD0E9451
:10318000E10BD5DDE0E0F7E020F009F08827883298
:1031900008F088E298E0DCCFCADD20F009F088274B
:1031A000803108F080E1C9DD00F1F9F49031E8F4F4
:1031B000EFEDF6E0E90FF11DA3E8883010F4A82F39
:1031C000A5588850A083EEECF6E0E90FF11DA0E2CF
:1031D00088232AF0A3E8883010F4A82FA558A083EC
:1031E00083E00E947F05F299C7CB0895AEDD0E946F
:1031F000E10B9DDD20F009F08827883008F088E099
:103200009CDD88F081F4983070F4E8EFF6E0E90F87
:10321000F11DA3E8883010F4A82FA558A08383E0FF
:103220000E947F058EC5089582DD40F139F5803119
:1032300028F583DD18F111F5963000F5EFEDF6E095
:10324000933018F0EEECF6E09350E80FF11D80811A
:103250008B3710F0833808F08BE78B57903009F4E8
:103260008160913009F48260923009F4846085585D
:10327000808384E00E947F05F2997ECB089557DD1C
:1032800040F139F5803128F558DD18F111F5963007
:1032900000F5EFEDF6E0933018F0EEECF6E0935029
:1032A000E80FF11D80818B3710F0833808F08BE731
:1032B0008B57903009F48E7F913009F48D7F9230D6
:1032C00009F48B7F8558808384E00E947F05F29902
:1032D00053CB08952CDD48F141F5803130F52DDDDB
:1032E00020F119F5963008F5EFEDF6E0933018F07F
:1032F000EEECF6E09350E80FF11D80818B3710F073
:10330000833808F08BE7903009F4A1E0913009F49C
:10331000A2E0923009F4A4E08B578A278558808375
:1033200084E00E947F05F29927CB08950CD526DB17
:10333000C6C730E7010005C506D5B889AF859E85AB
:103340008D850E94292A0E94670EFBC4FCD487E069
:1033500017DB0E946E2A8D879E87AF87B88BF1C4DA
:10336000F2D40CDBC70303452886220901000E9422
:10337000330D0E94592A8137E0F498E0989FE6E9DE
:10338000F9E2E00DF11D11248591EF93FF93805236
:103390000E94BC079F938F9382958F700E94460D69
:1033A0008F918F700E94460D9F91FF91EF919A959A
:1033B00059F70E94592A880F39F08F9388270E9465
:1033C000460D8F918A95C9F7BCC408950E94F00BF1
:1033D0000E94ED0BF09B0E94990D0E941D0E86E04D
:1033E000CFDA0E9445268281807831F081E00E9408
:1033F000460D83E00E94460D0E9408240E94292465
:103400000E946E2ABC01CD013327262F0E9466231D
:103410007B018C010E947E23261B2F933395B701DD
:10342000C801EF28E02AE12A81F78F913F93805F5E
:103430000E94BC078F9382958F700E94460D8F91DA
:103440008F700E94460D3F913A9579F77AC46FDCF0
:1034500074DC9093530180935401109255010895A8
:1034600072D4809155010E94132A0E94670E69C48C
:103470006AD4CDDC83DAC6C71B020201089563D487
:103480007DDA19E7E6015DC4B8CC78DA1A191C02B6
:10349000021B020201000895C4DCB9DCCADC0E94F0
:1034A000E5280C94E5286ADA1A09190A290A291D5F
:1034B0001B020201089562DA1A09190A28410A2832
:1034C000411D1B020201089559DA1A19020904224A
:1034D0000A221A1909020904220A220A28410A2981
:1034E0001D1B02020100089549DA19411B64096499
:1034F0002901EADF43DA190A0904230A09231B0216
:10350000020108953BDA1A5C02100980801D1B023B
:10351000020108950100B9DF27D0D6DF1EC016D002
:10352000F1CF22D0B2DF20D0B0DFDECF27DA195CB6
:10353000096409245B1B0202010008951FDA195C6B
:10354000096309255B1B02020100089560DC16DA9D
:1035500081801B02020199DFC7CF10DA19095E09C9
:103560005B1B02020100089509DA195C095D091B61
:1035700002020100089502DA195E033E04042825C0
:103580000A29250A03010895F6DFF8D9520A0953DA
:10359000220A22091B0202010895EDDFEFD9530A26
:1035A000095222410A22091B02020100089574DF18
:1035B000EBDF6BDFF2DF98CFE1D91964043F6404DD
:1035C00029630A4064296304042825010895F4DF6F
:1035D000D5D9560A292503644063295D1B020201DF
:1035E0000895EADFCBD9570A292503644063295D92
:1035F000411B020201000895C1D91904640964291C
:10360000404109245C2509021909640904043F6446
:10361000290A09406429235D25251B02020108951A
:10362000ADD9195C1B0202010895A8D9195B1B02D0
:103630000201089588D38827F29981E0F29A8F9346
:103640009DD9C6C70404288922130B09048922299D
:103650000504093610060202803E0F4B04042904BB
:103660004D1540133E044D153A120602020A020F90
:1036700035223410220204290FD6054D15251203D8
:10368000020F20044D151C120502020A0F152234E8
:103690001103090F010A020A25062906280A050551
:1036A0000917D70202090204882209042829E7E63B
:1036B00001008F91882309F4F29843C344D38827EB
:1036C000F29981E0F29A8F9359D921112112211395
:1036D000433F25450A0428412505230A044D1528A2
:1036E0000B090628034D24240B29151C0906280A5A
:1036F0004048130A0A034D240B29150C0FE30A0353
:103700004D0B29061F0323220C020202E7018F91B1
:10371000882309F4F29815C316D330D9C759E701A5
:1037200010C311D32BD9C75AE7010BC30CD326D929
:10373000C74EE70106C307D321D9C74FE70101C32D
:1037400002D31CD9C750E701FCC2FDD217D9C6C7A6
:1037500004320F0AF6C2F7D211D9C6C704311001DC
:10376000A7020100EEC2E6E0F6E096E01192E63A2A
:10377000F907E1F70895E7D201D91FF01FC0221F12
:10378000FA221FE7221FC3224803C7221EE6E701D1
:10379000D8C2D9D2F3D8C6C723E70100D2C2EED827
:1037A000190941091B020201E9D81A190905220C5D
:1037B00004220A220A29091E1D1B02020100089583
:1037C000DDD819091B020201D9D81A190C220A22C4
:1037D0001E1D1B0202010895F2990E948403F299B2
:1037E0000895F29AC9D80E948403F298AAC2F29965
:1037F0000E948603F2990895F29ABED80E94860329
:10380000F2989FC2A0D287E0BBD80E940E200E94EF
:10381000CF210E94670E95C280910401909105010D
:1038200080934F089093500808958DD280910401A1
:1038300090910501A0914F08B09150088A1B9B0BF5
:103840000E94142A89E00E943C250E949B260E9427
:10385000670E77C278D28EE60E94132A0E94670E06
:1038600070C271D28A8D9B8D9F77F49990680E9467
:10387000142A0E94670E65C266D20E9489020E94C5
:10388000142A0E94670EE2E0FCE7859194910E9461
:10389000142A86E00E94732654C255D287E070D85D
:1038A00088E00E943C250E949B260E94402A992382
:1038B00051F071E0843F970710F484EF91E09F3F4F
:1038C00011F48FEF9EEF80933D0190933E01A9EF9D
:1038D000B3E08F930E94F3059F9111970E94F30527
:1038E00030C231D280913D0190913E010E94142A54
:1038F00089E00E943C250E949B260E94670E21C2FF
:103900000C945E02F2990E94C1118E818F3FE9F7FB
:103910000E941A0414BC15BC15B814B818B817B80E
:103920001BB81AB8F8940C94B702962EA82EA82E9D
:10393000A82EA82EC42EC82ECC2ED02ED42E302F9A
:103940003A2F562F622F6C2F742F7C2F802F9A2F97
:10395000A02FBE2FD62FF02FF02F00300A301430BA
:103960001E3026302E303830423048304830483013
:103970004830483048304830483048304830483087
:10398000483048304830483048305A305A305A3041
:103990005A305A305A305A305A305A305A305A30D7
:1039A0005A305A305A305A305A3068307A3088306B
:1039B000BE30CA30E030183120313C3174317C31B6
:1039C0009831EC3128327E32D4322C3338334C33B8
:1039D0006033CC334E34603470347E3488348A346F
:1039E0009834A634B634C834E83404351E3522354C
:1039F0002C353C354C355A35683588359A35AE35D9
:103A0000CE35E235F83520362A363436BC3618370E
:103A100022372C37363740374A37563766377637AE
:103A20009237A8379E37C837C037D837EE370438B3
:103A300018382A385438623878389A38E2380039D9
:103A400004390C94890A0C94380D8B89E5E0F8E070
:103A5000E80FF11D80810895F6DF87E00E9475264A
:103A6000F4DF8F7329F08C8B85E00E946F26EDDFE9
:103A70008F70813019F40E946E2743C0823019F490
:103A80000E946D273EC0863019F40E949B2639C0E3
:103A9000873019F40E94052734C08D3019F40E9434
:103AA0009C272FC08E3029F40E94B7230E949C27A8
:103AB00028C0833021F0843011F0853019F40E9441
:103AC000B9271FC0883019F40E9445271AC08930D1
:103AD00019F40E944B2715C08A3039F40E949B26A6
:103AE00089E0CAD70E949B260CC08B3019F40E9433
:103AF000E62607C08C3019F40E94F02602C00E940E
:103B0000E52887E00E946F26F19A9FDF807C808302
:103B100018C18B898F3058F483958B8B87E00E9476
:103B2000752693DF108208958B89882311F40C94F5
:103B3000AC020E94E5288A958B8B089584DFF1986A
:103B4000E8DF7FCF80DF88DF80DF8F938B8988235A
:103B500009F0EADF8F91807C8030A9F772CF73DFA4
:103B6000F19B21C072DF8073803341F475DF6DDF1C
:103B7000807C803811F0803409F4D6DF66DF8073F2
:103B8000803231F469DF61DF807C803409F4CCDF7E
:103B90005CDF8073803109F45FDF0E94E52887E0F5
:103BA0000E947526F19851DF807C8161808349CF26
:103BB000D6DF807C8261808344CFD1DF807C8361CB
:103BC000FACFCDDF807C8561F6CFC9DF807C846150
:103BD000F2CF39DFF19B1DC038DF8073803331F4C1
:103BE0003BDF33DF807C803809F49EDF2EDF80737B
:103BF000803209F431DF29DF8073803121F489DFDD
:103C000024DF80E480830E94E52887E00E947526F7
:103C1000F1981BDF807C8662808313CFDADF807CA3
:103C2000876280830ECFD5DF807C8862FACFD1DFB8
:103C3000807C8962F6CF07DF87E00E94752605DF6A
:103C40008F7329F08C8B85E00E946F2606C00E943E
:103C5000E528BFDF807C8A62E4CFF7DE8F70813099
:103C600031F4E4D704228922A529010018C082304A
:103C700031F4DCD704228922A528010010C0863047
:103C800029F4D4D78922A522010009C0873029F45C
:103C9000CDD78922A523010002C00E94E52887E034
:103CA0000E946F26F19AD1DE807C80834AC091DF2A
:103CB000807C8B62B6CF8DDF807C8C62B2CF7F93AD
:103CC000C2DEF19B1AC0C1DE8073803309F4C4DE0A
:103CD000BCDE8073803221F41CDFB7DE80E8808395
:103CE000B4DE8073803121F414DFAFDE80E48083A2
:103CF0000E94E52887E0F9D7F198A7DE807C7F91C4
:103D000077237DE309F07EE3872B80839ACE9BDEC9
:103D10008B89882319F499DE8F7029F013DF8B8942
:103D20008823E1F70FCF8C89882351F00E94E52882
:103D300087E0DBD785E0D9D788DE8C89808398CE71
:103D400008950C94250B0C94370D29F0FCDF6ED7E9
:103D5000C75EE701F6CFF7DF69D7C75DE701F1CFAF
:103D600029F0F1DF63D7C760E701EBCFECDF5ED767
:103D7000C75FE701E6CF29F0E6DF58D7C762E70162
:103D8000E0CFE1DF53D7C761E701DBCF31F0DBDF05
:103D90004DD74CC722E70100D4CFD5DF47D74CE73A
:103DA0000100CFCF31F0CFDF41D7C7585AE701002C
:103DB000C8CFC9DF3BD7C75954E70100C2CFC3DF23
:103DC00035D7C764E701BDCFBEDF30D7C763E70192
:103DD000B8CFB9DF2BD7C73EE701B3CF31F0B3DFA0
:103DE00025D7C7565AE70100ACCFADDF1FD7C7595B
:103DF00052E70100A6CF31F0A6DF18D7C7575AE720
:103E000001009FCFA0DF12D7C75953E7010099CF18
:103E100029F499DF0BD7C743E70193CF94DFF19AD9
:103E200005D7C742E7018DCF29F08DDFFFD6C70345
:103E300045280F0688DFFAD6C745E70182CF21F46F
:103E400082DFF4D6C7480F087EDFF0D6C7034628C6
:103E5000E70177CF39F077DFE9D6C703643F6329FD
:103E60005D0F0B0070DFE2D6C75E033E2825E70139
:103E700068CF39F068DFDAD6C703644063295D0F85
:103E80000B0061DFD3D6C75E033E2925E70159CF7A
:103E900041F059DFCBD6C7033F094041235D250FD1
:103EA0000D0051DFC3D6C7245E0340093F23E7015D
:103EB00048CF6FE26395885E9340E0F788519C4F4E
:103EC0006A3308F0695F08956FE263958456904005
:103ED000E0F78C599F4FF4CF6FE263958A50E8F773
:103EE000865CEECF8B859C8501978B879C87089598
:103EF0008B859C8501968B879C870895C9D68050B9
:103F000090489F930E94242A9F9199231AF033D4BA
:103F100032D401C033D48E8D803021F480E1ACD511
:103F20000AD70AC0833011F441D706C0823021F489
:103F300083E00E94132A69D70E945E2A8B879C87A0
:103F4000BC01AE8DA330B9F4A3D6AB01440F551F0D
:103F5000440F551F841B950B9083818399D690380D
:103F600018F42CD7BFDFFACF93D6843018F01CD7C3
:103F7000BFDFFACF0895A230B1F48AD6861B970B23
:103F8000861B970B861B970B9083818381D6903875
:103F900018F415D7A7DFFACF7BD6833018F005D7F2
:103FA000A7DFFACF0895A13091F472D6861B970B44
:103FB000908381836DD6903818F403D793DFFACFBE
:103FC00067D6813018F0F3D693DFFACF0895ECE48A
:103FD000F2E066EF7FEF99231AF4A0D26AE070E076
:103FE000E60FF71F9695879570F46F937F938F93E5
:103FF0009F93EF93FF934DD59ED6FF91EF919F91A5
:104000008F917F916F91A82FA92B51F741D69038AE
:1040100020F486E031D58FD665DF089580E1888F62
:104020001B861C860E94E20C0E94080CF4990E94D8
:10403000D50B0E940E0CF2990E94DB0B0E94FF0B25
:104040000E94482610F40E94CC0B92818DE297FFCB
:1040500080E29F77928389A71BD609F04FDF0E94E9
:10406000F30B31E00E94220CC1F08B859C850E94ED
:10407000242A9E8D83E0903019F0923009F084E07C
:104080000E94132A08D70E94592A6B857C85681BD9
:1040900071096B877C878395382F788D725050E03B
:1040A00040E08B859C850E94250C51F48717910573
:1040B0003CF4AF89AF3059F5AFEF8D3F9A073CF52F
:1040C000692F99230AF42AD2E88DFF27E75DFE4F76
:1040D000DC014FD28C0161D2A81BA05D0E94340C80
:1040E00009F0A9E3A2935395C801092B89F7662328
:1040F0008BE20AF48DE282935395751B272F231BC5
:10410000AF89AF3059F1A2174CF52A2F27C0382FAD
:10411000AFEF3C3E9A070CF43CEE33950AF061F4A5
:10412000432F41953327288D2A952195AFEF82178C
:104130009A0714F4488D4A95272F231B241B12F449
:10414000420F2227240FAF89AF3041F0A4170CF49F
:104150004A2F240FA2170CF42A2F241B5E8BA88D44
:10416000A250A51BA31B12F43A0FAA27A41B12F4FA
:104170004A0FAA27A21B0AF42A0F732F720F763157
:1041800028F486D519F00E94280C09F081C02F93DD
:104190004F935F937F933F938E8D803039F58AE004
:1041A000789FF0011124EE51FD4F73D40E946E27C9
:1041B0000E94052986E060D482E3E3D20E94592A56
:1041C000882399F087E058D4B6D592DE0E94C00BC0
:1041D0000E94220C51F03F91339584DE343020F060
:1041E000335086DE85DE84DE3F9349C0833091F410
:1041F00080E042D44DD5770F770F83E090E8871B9E
:104200009109908381830E946E2742D58430B8F152
:10421000CBD524C0823099F480E02ED439D5872FB5
:10422000770F780F82E090E8871B91099083818354
:104230000E946E272DD5833010F1B7D5C6CF80E010
:104240001BD426D580E090E8871B91099083818359
:104250000E946E271DD5813090F0A9D549DE0E94BD
:10426000C00B0E94220C59F03F9133953BDE353054
:1042700028F034503DDE3CDE3BDE3ADE3F933F919A
:104280007F915F914F912F910E94280C09F005CFEB
:104290000E94C30BAAE2B1E0332311F48EE28D93A6
:1042A000442321F080E38D934A95E9F77723A9F120
:1042B0007F933F932F93AF93BF93A7D70E94592A21
:1042C000782F8A3008F0895F805D0E94340C09F0F5
:1042D00089E3BF91AF918D93AF93BF93872F0E94D6
:1042E000132AFBD58E8D803021F486E0C5D323D5EB
:1042F00009C0823011F463D505C0833011F45ED556
:1043000001C05FD5BF91AF912F913F917F913A95B9
:1043100011F48EE28D937A9559F68F898F3091F44E
:10432000222339F08E91803329F480E28C932A95F0
:10433000C9F78E918E3229F480E28C930E94F60B9D
:1043400001C011968A2F89528D8B488D9E89491BF9
:104350008417B8F4E9E2F1E0E40FF11D481B9E91E7
:1043600092938A95E1F78181803211F08E3229F49F
:1043700080E3808392934A9521F080E282934A956C
:10438000E9F7E88DFF27E75DFE4F10820E943C0CA5
:1043900009F4F4980E94420C09F0F29A16C78CD4E2
:1043A00007D281E069D384E09ED49D898E89890FEC
:1043B000E9E3F1E0E81BF1098191803229F08D32C7
:1043C00019F080E2319793958F939A959F938191FD
:1043D0008E3209F44EC08F93EF93FF939E8D9030F1
:1043E00021F486E049D3A7D409C0933011F4E6D470
:1043F00005C0923011F4E3D401C0E3D4FF91EF91F2
:104400008F9180538A3008F08750EF93FF930E947A
:10441000132A0E946E27FF91EF919F919A95B1F612
:104420002BC09F93EF93FF9384E00E9475269E8D8F
:10443000903021F487E020D37ED409C0933011F46A
:10444000B3D405C0923011F4B0D401C0B0D484E02C
:1044500046D4FF91EF91819180538A3008F08750C4
:10446000EF93FF930E94132A66D40E946E27FF9158
:10447000EF919F919A95A9F68F918D3229F4EF9340
:10448000FF93C1D1FF91EF916E89662331F1719154
:104490007F936A959927882780D051915053850F33
:1044A000911D6A95C9F76E8D6030C1F0633021F4BB
:1044B000880F991F880F991F623029F4BC01880F5B
:1044C000991F860F971F5F915D3209F427D0BC01B9
:1044D000DFD3860F971F908381830895ECE4F2E089
:1044E00066EF7FEF5F915D3211F06AE070E0E60FFA
:1044F000F71F9695879570F46F937F938F939F9393
:10450000EF93FF93C6D217D4FF91EF919F918F91B4
:104510007F916F91A82FA92B51F7089590958195C0
:104520009F4F0895082E8DEC089E812D86958695C7
:10453000869511240895AF93BF93EF93FF93869FC1
:10454000D001979FF001699F9927B00DE11DF91FD8
:10455000789FB00DE11DF91FBD01CF011124FF911E
:10456000EF91BF91AF910895969587956A95E2F77F
:1045700008956F937F936DEC7CECDDDF63E0F6DFF5
:104580007F916F9108956F937F9368ED73EAD3DF06
:1045900066E0ECDF7F916F9108956F936AE002D03F
:1045A0006F9108952F933F939C01629FC001639F79
:1045B000900D11243F912F910895DF93CF939F93F6
:1045C0008F937F936F93DF92CF923F922F92F8E079
:1045D0001F2EFF27EE27EF01DF01CF011F92DF9291
:1045E000EA9CB001E89C6001E69C1001E49C800D0F
:1045F000911DA21DB31DCC1DDD1DE61FF71F0F90E1
:104600008F93892F9A2FAB2FBC2FCD2FDE2FEF2F1B
:10461000F0E0FF1FEB9CB001E99C6001E79C1001FA
:10462000E59C800D911DA21DB31DCC1DDD1DE61F57
:10463000F71FEF2CF02E012F122F232F342F452F91
:10464000DF901F901A9451F67C018D019E01AF01FD
:104650002F903F90CF90DF906F917F918F919F919E
:10466000CF91DF910895629FD001739FF001829FE7
:10467000E00DF11D649FE00DF11D929FF00D839FF1
:10468000F00D749FF00D659FF00D9927729FB00D8E
:10469000E11DF91F639FB00DE11DF91FBD01CF01A1
:1046A00011240895F0E1660F771F881F991F18F0F5
:1046B0008417950718F0841B950B8894661F771F45
:1046C000FA9599F760957095CB0108954AE0F0E26C
:1046D000AA1B660F771F881F991FAA1F10F0A41727
:1046E00010F0A41B8894661F771F881F991FFA95E6
:1046F000A1F7609570958095909508954AE0849F04
:10470000D001949FB00DCD01DB01A49FB001AA2779
:10471000B49F700D811D9A1F112408956D857E85AB
:104720008F8598892DEF33E443E050E09CDF6D5393
:104730007146894D9F4F6D877E878F87988B08952F
:10474000EDDFEE24FF2487019B01AC016FEF7FE7D3
:1047500081E257FD07C088949BD5615071098A9505
:10476000C1F745D65F77A8D21EC64FD5E4C281E017
:1047700083D14FD54AC381E07FD1B0C382E07CD1E1
:10478000ADC38FD28153869518F48F9342D58F9104
:104790008F93A3D38F918F9380FD21D019D08F91C8
:1047A00081FF1DD0089571D280E09281982712F088
:1047B0001ED6F9C51CD670E8F6C56EEF7FEF5FE731
:1047C0004FEF3FEF2FEF89017901EDC56FEFF6CF86
:1047D0005FD241F38FEFE9CFFBDF01C0E4DF58D2B6
:1047E00049F3E6CF55D2FAD4E9F24FD2E3CF50D213
:1047F000F5D4C1F64AD2DCCF4BD221F09281DADF78
:1048000090789283089544D2E9F392819058F9CF39
:104810003CD292819F77F5CF3BD28050904808F4EC
:10482000C7CF9923A9F48F5398F481953A96682FAE
:1048300066956695669519F012926A95E9F7877004
:1048400039F06FEF660F8A95E9F7829186238083AE
:104850000895ECD1840438100141291844010895C9
:10486000E5D1034828010895E1D10348040428094B
:104870000A341006341107400F043811013F0100BB
:104880000895D4D103480904283411014001089542
:10489000CDD103480904283811013F010895C6D13C
:1048A000972701000895FDD17D916C918FEF6F3FA7
:1048B000780771F0908181810196019749F040F06D
:1048C000681B790B18F06434710510F407D3B9C470
:1048D0007CD42BC6ABD195290100A8D151039636C3
:1048E000A410039709281327039628112203644173
:1048F000E381E2A1C1C322C23FA223C23FA223A1FE
:1049000017F203813610020281C41001410108959B
:104910000280010008958AD10352095323010895AA
:1049200085D1035309522301089580D113370338E9
:104930000943038135103103853112060964404172
:104940006309090364E481E3A2C2C422C322C3222F
:10495000C33FA323C33FA323A217EE09100341952E
:1049600029091001410108950295160FF4005ED146
:10497000569528410100089559D103643F63235699
:1049800001000895028001000895024B41160100C4
:1049900008954CD113F403813710E9033810024312
:1049A00016038132A410013E01006FD190818181F4
:1049B00001960197D0F060E070E87083618334D590
:1049C00080E090E831D532D1288C22090340093F9C
:1049D00023A364E2C381E1C3C222A3C18329A1232B
:1049E00017F52429C4100141010008953F010895DD
:1049F0001DD113F80392361007024B1601000895DB
:104A000003933510050280010895038D2244A38C81
:104A10002228E4C380E381A2C2C422C33FA323A20D
:104A200017F6090180E090E8FFD458D229D544D187
:104A3000C1DE908381837FC1F9D05D8F220108950B
:104A4000F5D08E225E010895F1D05D8D220108958A
:104A5000EDD08C225E010895898D813029F08BE1A3
:104A600008F08DE109D067D10895898D8130E1F397
:104A70008AE1C0F38CE1F6CF1FD1DF019AE0989F65
:104A8000F0011124E058FF4F85918D939A95E1F73D
:104A900008950BD111D109D19AE0F6CF0DD19AE04A
:104AA00044D581939A95E1F7089506D186CE04D135
:104AB0008DCE3BD5982F9F70AAE09A9FD001AA5F18
:104AC000B94F1124807F82F48F93FD010E947626D6
:104AD0000E94592A8E3610F00C94AC02885F0E9416
:104AE0006826DF018F918077803021F40E9445266F
:104AF0000C94FF29803131F40E945C260E945526D7
:104B00000C94FF290E9445260E94FF290C94E52859
:104B10000E94370D0E94670EF19A88A5F29B8FEFD5
:104B20008F9319A286E177270E94D711F29B0DC0BF
:104B30000E948C0B0E94A4070E94A1140E945F0493
:104B40008F918F9398A5891789F78F910E94370DC0
:104B500087E00C947526E9D466C4B651B851CA51A1
:104B60000A520252FA51F251EA51E25112522452BF
:104B70002A52305236523C52425252525A52625289
:104B800066526A5274527A52A648BC53222E1E2E86
:104B9000322E2E2EFA2DA651564B9C4AB24A364D35
:104BA0000A4EC24DAE4D8A4E964EDA4EDC4E384F0E
:104BB000FE4F02500650CC4DE04D8A51824782474D
:104BC0008247A647824782478247D047D847DC477B
:104BD000DE47E447EE476E4776477C470648F8478E
:104BE0001048184868488248904852486048AA4A85
:104BF000AE4A4047104B3C51485152519E48DA480A
:104C0000D448164920492A496E497849584A6A4A7F
:104C1000E450F2509249F049384A404A484A504AD2
:104C2000324F6A47784ADE4CEA4CE64C9F918F91AE
:104C30002F923F921C01220C331C77D4982F88238B
:104C40002AF49F718295869583708B59EAE5FBE47F
:104C5000E80FF11DE80FF11D0590F491E02DF69598
:104C6000E795892F0995E9CF81E0898B87E08A8BC9
:104C70001B8A80E001DF87E032D085E034D01C8AD7
:104C80000C948E1DE989FA890895FCDF3A970895FE
:104C9000FCDF90818181019601970895F3DF74977D
:104CA0000895F3DFDF011A970895EA27AE27EA2770
:104CB000FB27BF27FB270895E5DF3A968FD23A9767
:104CC0008F9388E0E530F8078F91A8F30C94AC023D
:104CD000EAE0E89FF001E659FE4F11240895F8DF5D
:104CE000DF01D3DF8CC3FBDF70C2F2DFCF01E4DF73
:104CF000DF01FC0184C3908181810196019721F03D
:104D000082817827806882830895CFDFF4DF21F0E5
:104D1000B4D2C4DF5BDD59C2B0D2C0DF7F934ADDBD
:104D20007F9177230AF46FDD50C2BFDFE4DFA0F389
:104D3000B5DF3EDD4AC2B5DF7727DDDF30F3A9F30B
:104D4000B4DFD9DF28F3A1F3972F62D388276C0D46
:104D50007D1D881F32DCDB01AF5FBF47810974E333
:104D600057FD08C0DD0C94D2119781097A95C1F7DF
:104D70003ED315C0DD0C28F4B7D219F450E81196D3
:104D8000811D8823AAF369F4A115B10589F37FEF8A
:104D9000AF3FB70730F45F779078592BBD0175DFCF
:104DA00002C373DF13DD69C202D001D000D070DF0F
:104DB000C0F319F0019781839083089502D001D048
:104DC00000D066DF70F3C9F30196F5CF59D348F3ED
:104DD000BC015EDF30F389F3860F971F10F3EBCF32
:104DE0004FD3F8F2BC0154DFE0F239F3861B970B86
:104DF00010F788279927DFCF58DF7DDF09F088CFAC
:104E00008BCF53DF78DFE0F393CF4BDF772773DF70
:104E1000C0F391F34ADF6FDF90F3B1F3972FF8D22D
:104E20009F93CF93DF93FFEB1F2E882700240BC0A7
:104E3000881F991FAA1FBB1FCC1FDD1FEE1FFF1F5E
:104E4000889426D228F03FD220F434D2889402C02D
:104E50003AD20894139462F3001C112089F36C1960
:104E60007D091108D02CD794D794D7947C018D015B
:104E70009E01AF01CFEFDB01A050B0481C0A812D8D
:104E8000DF91CF9111249F916ACFD0DE0404234596
:104E9000222801000895CADE0404234622280100C6
:104EA000089576D2CB016627009629F057FB50680B
:104EB0000EF429D278C29BD276C2009669F099236B
:104EC00051F4813440F46595ECD18A95E1F720F4F2
:104ED0000BD26F4F09F48CC2089595DCE2DEE1DF5E
:104EE0002C01E3DEDEDF4816590638F4DEDE8425C9
:104EF000482684259525592695255F924F9288D27C
:104F0000AF91BF918A1B9B0B909581959F4FD5DFE9
:104F1000D1D16C1D962F907819F0F5D108F028CFDB
:104F20008827662321F081E0CEDF1196881FDD24DB
:104F300016CF7CDE1309840179DE1206020281019C
:104F4000089509120B02381103800FF34B160FEF6F
:104F500003381106435D22014BCD0403452811039C
:104F6000160FF1042503452811EA435D225E410135
:104F700008958F9396DE95DF2C0197DE92DF481619
:104F8000590638F492DE842548268425952559262D
:104F900095255F924F923CD2AF91BF918A1B9B0B9C
:104FA000909581959F4F89DF8F91833051F4E42054
:104FB000F52006211721282139214A215B216C2166
:104FC00015C0843051F4E428F5280629172928292A
:104FD00039294A295B296C2909C0E424F5240625CE
:104FE0001725282539254A255B256C25962F90788D
:104FF00019F089D108F0BCCE8827DD24B0CE83E03B
:10500000B8CF84E0B6CF85E0B4CF81E035DD01D103
:1050100037D2009641F08F939F9306D28CDE9F91FA
:105020008F910197C1F7089533DEA0E88C309A077D
:1050300080E008F481E08F93F6D1EBD08F91882344
:10504000089581E019DDEED0E4D022DE9CE0981BCB
:105050009F9391DBDED0E6D0D4D06DDEE3D0D9D003
:105060009F919A95A9F70895D0D0ECE2F4E0EF93E0
:10507000FF930FDDCED0C9DEC4D030DFFF91EF91BA
:105080003A97EE3BA1F705DDD1DD092399290428E4
:10509000045D0A8429090A2229010895B6D0B5D0F1
:1050A000E3DB1BDFB6D0C0DF09F0CBDFDDDFA0DC48
:1050B000B0D0FFD1882311F0ACD0A7DEAAD0E8DDB4
:1050C0008DD009F4C6DB0895AFDF21F0BADFAAD096
:1050D00060DCA8D0C9DF9DD0ECD1882311F099D035
:1050E000FCDE0895A3DD040453220A0952220100C4
:1050F00008950E94080CF4990E94D50B0E940E0C92
:10510000F2990E94DB0B92DD09120A0203429522FA
:105110000943090F1309040464096429630A090493
:10512000235809341102962901000E943C0C09F40D
:10513000F4980E94420C09F0F29A089577DD645EBB
:105140009722633E0100089571DD508128410100DE
:1051500008956CDD031F08351028031F0841361021
:1051600025034E090364810A03090905220C8329DA
:105170000C0623090417F30C020202228429010001
:10518000089502810FF802800FF450DD48131109D1
:1051900048130D0426481303090FF802010008956F
:1051A00002028100089542DD040430030C09234803
:1051B0000A23480108950895FF91EF91F1013F906E
:1051C0002F903196F695E79509945FDD8F9386E0F1
:1051D000E73FF8078F9111F40C94AC02E98BFA8B3E
:1051E00008956ADDDF01FC970AC166DDDF01F297F1
:1051F00006C162DDDF01B89702C15EDDDF017E9787
:10520000FEC05ADDDF017497FAC056DDDF013A9720
:10521000F6C047DD7AE080819C918D9391937A95D9
:10522000D1F708953EDD1A97F5CF3BDD7497F2CFA5
:1052300038DD5497EFCF35DD5E97ECCF32DD9897B0
:10524000E9CF73D190E088230AF49FEF280E391E2E
:1052500008951EDDC3DFA9F768C11ADDBFDF89F33A
:1052600064C116DDF8CF14DDFACFF499EACFF599D1
:10527000E8CF5BC1F29BE5CF58C1F49A8F9388E0E9
:105280000E944B0C8F9111F00E94C1110894089557
:10529000EE1CFF1C001F111F221F331F441F551F30
:1052A0000895579547953795279517950795F7943E
:1052B000E7940895E40CF51C061D171D281D391DE3
:1052C0004A1D5B1D0895E418F50806091709280909
:1052D00039094A095B090895F108010911092109F1
:1052E00031094109510908951F921A94E118F4DF18
:1052F0001F900895E094F0940095109520953095B6
:105300004095509508951A946095F5DFE194E4DF97
:105310006109139408951F900F904F925F926F92BE
:105320007F928F929F92AF92BF92CF92DF92EF9235
:10533000FF920F931F932F933F934F935F936F931E
:105340007F938F939F93AF93BF93EF93FF930F92AE
:105350001F92112408951F900F90FF91EF91BF911C
:10536000AF919F918F917F916F915F914F913F91FD
:105370002F911F910F91FF90EF90DF90CF90BF90F2
:10538000AF909F908F907F906F905F904F90DFCF06
:105390007081618152814381348125811681078129
:1053A000F084E1840895708361835283438334835E
:1053B000258316830783F086E186089566DCE8DF9F
:1053C000952F50688AEFE80EF11C011D111D211D5B
:1053D000311D411D511D38F464DF639521F473952F
:1053E00011F40E94E62390785F77592BDCCF772762
:1053F0006627552744279A018A017A0108959AE081
:1054000081918D939A95E1F708953FDCC1DFDDCE60
:10541000DD90CD90BD90AD909D908D907D906D90E4
:105420005D904C90F3CF992747DCE1DF092E082AE5
:1054300051F070E860E161507109880F991FD8F749
:1054400096958795AC01AFCF992372F767D8ECDFBB
:10545000DAC932DCCCDF0B2E0A2A092A082A79F0B5
:1054600070E860E261507109880F991FAA1FBB1F85
:10547000C8F7B695A795979587959C01AD0193CFF1
:105480009DDFC3DF992788276050704858F0CA0114
:1054900090686051704040F4609521F09695879532
:1054A0006A95E1F7889403C08FEF9FEF08945078D6
:1054B0000895E6DFE8F39923A9F3F6CFE1DF39F0A9
:1054C00070E88130970710F080E090E827C870E816
:1054D0008030970710F08FEF9FE708956FDF95DF1B
:1054E000BB27AA27992788276050704870F0DA01F7
:1054F000C901B0686052704050F4609531F0B695C3
:10550000A795979587956A95D1F7889405C08FEFF1
:105510009FEFAFEFBFEF089450780895E2252E2655
:10552000E225F3253F26F3250895F8DF8591F6DF80
:10553000089532006800A9011405F20639077807BA
:10554000C3074C08EE081209AD09CC0BA80C5E0E7F
:10555000BF0EFD0EBC0FFF0FAF100313D11351147C
:10556000AE14E2144215BC150D169B162917A71789
:10557000EF17DB18491AC01A051C571C701C411D77
:10558000521E961EC81E941F4820B7213322D922CE
:10559000752366243325CE25C8267611258201760B
:1055A000FE0302820229821176FD5369428501546D
:1055B00053328501543282E2FD76FC6940320605A1
:1055C0002267FB5353030261FA76FB08012267F955
:1055D0005353090676FA858211546E0102075482EC
:1055E0000161FE76F9042277FC32694361FE76128E
:1055F0009B020505328B76F8694067F86661F8769C
:10560000179B020505329B61F876147624609B2275
:10561000582257691D690069797613762525224736
:105620009276157695712402695369010093056994
:1056300053690269872267350532030037782237BC
:105640007869128878691122882278691422933245
:10565000030707930706000501050002010009671B
:105660009676350193026953690200356178769622
:10567000017678691F691A9276183204073201069A
:1056800082026986820176ED5382116E01850106E0
:105690005469425332750154325382115C0154599A
:1056A000820182E2ED691F927619320082016985DA
:1056B00082023276EE2701827182E2EE9276162520
:1056C0009B0101026953020669038B6987690E69B0
:1056D0008A698A9B25927610698B9276118207924D
:1056E0007612753201956582178501009582013227
:1056F0007650922701827161507619855324750185
:10570000546582178509959276FE828182178252AE
:105710009276FD82F5FC75827182178232271165BF
:10572000271261FD76FC9276FB82F5FA7571FE27F1
:105730001165271261FB76FA92761382178205852E
:1057400033850995820176F782152701828182E5EA
:10575000F7018204820676F6821485099582037524
:105760008217750100958205821419820227125052
:105770003276F582F5F482722712502277F5328262
:105780001785821585010095820361F576F48213F1
:1057900032821485099567F282020194824682174B
:1057A000850195820576F3271227932702821782B7
:1057B00032823382E5F376F2821419820127118254
:1057C000462967EC8217820576F1821419820285D8
:1057D000821575821495820327135527129582012D
:1057E000270376F0821782328233338501009532A7
:1057F000821377EF82119465271295273361F07633
:10580000EF8285821532821467EE61F176EE827442
:10581000821732821467ED61F676ED198201271145
:1058200076EC82468216927614820576EB9282039B
:10583000821733850995820182153282172277EB10
:1058400076E9827127112267E98217823182758297
:1058500013270161EB76152501820476E78217850F
:105860003385099582018214820575821785099511
:1058700082020071FD858271271195270182748251
:105880001432821777E701820476E609855382177E
:1058900085015433958201758217758214820595AE
:1058A00082020071FB8571FE2711955527129527FD
:1058B000018274821432821777E6013232927616B0
:1058C00085320985821765532485015495820132FA
:1058D00076E5922711827161E576172501820476BB
:1058E000E48214198201271135270182748214324F
:1058F000821777E4828401820376E282141982019E
:10590000758213820595820227116527129471FB17
:105910008500956571FE27129527018273821432E6
:1059200082132267E2018203828482143201226799
:10593000E276E18214198201858213820595820242
:1059400027129471FD6501823195270182738213BC
:105950003282177582149577E101823482038217AF
:105960003282142267E101820476E08214820519F2
:10597000820376DF821519820182138202821775F3
:10598000821585019582953227139471FD850095C6
:10599000942703821782333285019582053277DF9F
:1059A00032821467DD85019582058214198501957F
:1059B000820376DE821519820282138201821775B4
:1059C000821585019582953227116527129471FD04
:1059D00085009594270301823385329582053282B2
:1059E0001777DE827461E076DD01323276DC927602
:1059F0001882033282172277DC8582053385099568
:105A0000820100820476DA271167D9828182E5DA81
:105A100076D98215750195658217850995820132BF
:105A20009276D88271827427119282143282172260
:105A300067D801858213951861D87610132967D627
:105A40001776D682169276786953690105093282F3
:105A50001132695401023282123269540601000087
:105A600069026161766869000407695369017661BA
:105A7000691F691A92768169536901050932821199
:105A8000326954010207040601000069026161766F
:105A9000118294820332010169536901006954083B
:105AA00008328214326954000000006902821461D5
:105AB0006176657501820195658213850100958285
:105AC00007927612820082027632716576500571F5
:105AD000787694821092820027077A9103348AB1F3
